{
	"data": {
		"bytecode": {
			"linkReferences": {},
			"object": "608060405234801561001057600080fd5b50611b0b806100206000396000f3fe608060405234801561001057600080fd5b50600436106100885760003560e01c8063affed0e01161005b578063affed0e014610119578063bcc5f70214610137578063c4d66de81461015b578063efdd32f11461017757610088565b806332d624f81461008d57806348727de1146100ab5780634b9f5c98146100c757806363589571146100e3575b600080fd5b610095610195565b6040516100a2919061161c565b60405180910390f35b6100c560048036038101906100c09190611417565b6101bb565b005b6100e160048036038101906100dc919061146a565b61077b565b005b6100fd60048036038101906100f891906114f1565b610c3f565b6040516101109796959493929190611752565b60405180910390f35b610121610d0b565b60405161012e91906116f2565b60405180910390f35b61013f610d11565b60405161015297969594939291906117c1565b60405180910390f35b610175600480360381019061017091906113bd565b6110c3565b005b61017f61116f565b60405161018c9190611637565b60405180910390f35b600060019054906101000a900473ffffffffffffffffffffffffffffffffffffffff1681565b3373ffffffffffffffffffffffffffffffffffffffff16600060019054906101000a900473ffffffffffffffffffffffffffffffffffffffff1673ffffffffffffffffffffffffffffffffffffffff1663925c6fad6040518163ffffffff1660e01b815260040160206040518083038186803b15801561023a57600080fd5b505afa15801561024e573d6000803e3d6000fd5b505050506040513d601f19601f8201168201806040525081019061027291906113ea565b73ffffffffffffffffffffffffffffffffffffffff16146102c8576040517f08c379a00000000000000000000000000000000000000000000000000000000081526004016102bf90611652565b60405180910390fd5b60008060019054906101000a900473ffffffffffffffffffffffffffffffffffffffff1673ffffffffffffffffffffffffffffffffffffffff1663aa9bbc0c6040518163ffffffff1660e01b815260040160206040518083038186803b15801561033157600080fd5b505afa158015610345573d6000803e3d6000fd5b505050506040513d601f19601f8201168201806040525081019061036991906114c4565b905060008060019054906101000a900473ffffffffffffffffffffffffffffffffffffffff1673ffffffffffffffffffffffffffffffffffffffff1663f98f211a6040518163ffffffff1660e01b815260040160206040518083038186803b1580156103d457600080fd5b505afa1580156103e8573d6000803e3d6000fd5b505050506040513d601f19601f8201168201806040525081019061040c91906114c4565b905060006001600083815260200190815260200160002080549050141561043a576000600281905550610500565b6000600281111561044e5761044d611926565b5b600160008381526020019081526020016000206002548154811061047557610474611955565b5b906000526020600020906009020160080160009054906101000a900460ff1660028111156104a6576104a5611926565b5b14156104e7576040517f08c379a00000000000000000000000000000000000000000000000000000000081526004016104de906116b2565b60405180910390fd5b600260008154809291906104fa906118ae565b91905055505b6060600160008381526020019081526020016000206040518061012001604052808581526020018773ffffffffffffffffffffffffffffffffffffffff1681526020018873ffffffffffffffffffffffffffffffffffffffff1681526020018681526020013373ffffffffffffffffffffffffffffffffffffffff168152602001428152602001838152602001838152602001600060028111156105a7576105a6611926565b5b81525090806001815401808255809150506001900390600052602060002090600902016000909190919091506000820151816000015560208201518160010160006101000a81548173ffffffffffffffffffffffffffffffffffffffff021916908373ffffffffffffffffffffffffffffffffffffffff16021790555060408201518160020160006101000a81548173ffffffffffffffffffffffffffffffffffffffff021916908373ffffffffffffffffffffffffffffffffffffffff1602179055506060820151816003015560808201518160040160006101000a81548173ffffffffffffffffffffffffffffffffffffffff021916908373ffffffffffffffffffffffffffffffffffffffff16021790555060a0820151816005015560c08201518160060190805190602001906106e2929190611298565b5060e08201518160070190805190602001906106ff929190611298565b506101008201518160080160006101000a81548160ff0219169083600281111561072c5761072b611926565b5b02179055505050817f3c0d04161eb2beeb1b6d7adf44f89524c4c52f312424177f48bd77d9985a8ab960025488888860405161076b949392919061170d565b60405180910390a2505050505050565b600060019054906101000a900473ffffffffffffffffffffffffffffffffffffffff1673ffffffffffffffffffffffffffffffffffffffff1663490055c0336040518263ffffffff1660e01b81526004016107d6919061161c565b60206040518083038186803b1580156107ee57600080fd5b505afa158015610802573d6000803e3d6000fd5b505050506040513d601f19601f820116820180604052508101906108269190611497565b610865576040517f08c379a000000000000000000000000000000000000000000000000000000000815260040161085c90611672565b60405180910390fd5b60008060019054906101000a900473ffffffffffffffffffffffffffffffffffffffff1673ffffffffffffffffffffffffffffffffffffffff1663f98f211a6040518163ffffffff1660e01b815260040160206040518083038186803b1580156108ce57600080fd5b505afa1580156108e2573d6000803e3d6000fd5b505050506040513d601f19601f8201168201806040525081019061090691906114c4565b90506000600281111561091c5761091b611926565b5b600160008381526020019081526020016000206002548154811061094357610942611955565b5b906000526020600020906009020160080160009054906101000a900460ff16600281111561097457610973611926565b5b146109b4576040517f08c379a00000000000000000000000000000000000000000000000000000000081526004016109ab90611692565b60405180910390fd5b8115610afc5760016000828152602001908152602001600020600254815481106109e1576109e0611955565b5b9060005260206000209060090201600601339080600181540180825580915050600190039060005260206000200160009091909190916101000a81548173ffffffffffffffffffffffffffffffffffffffff021916908373ffffffffffffffffffffffffffffffffffffffff16021790555060066001600083815260200190815260200160002060025481548110610a7c57610a7b611955565b5b90600052602060002090600902016006018054905010610af757600180600083815260200190815260200160002060025481548110610abe57610abd611955565b5b906000526020600020906009020160080160006101000a81548160ff02191690836002811115610af157610af0611926565b5b02179055505b610c3b565b6001600082815260200190815260200160002060025481548110610b2357610b22611955565b5b9060005260206000209060090201600701339080600181540180825580915050600190039060005260206000200160009091909190916101000a81548173ffffffffffffffffffffffffffffffffffffffff021916908373ffffffffffffffffffffffffffffffffffffffff16021790555060066001600083815260200190815260200160002060025481548110610bbe57610bbd611955565b5b90600052602060002090600902016007018054905010610c3a5760026001600083815260200190815260200160002060025481548110610c0157610c00611955565b5b906000526020600020906009020160080160006101000a81548160ff02191690836002811115610c3457610c33611926565b5b02179055505b5b5050565b60016020528160005260406000208181548110610c5b57600080fd5b9060005260206000209060090201600091509150508060000154908060010160009054906101000a900473ffffffffffffffffffffffffffffffffffffffff16908060020160009054906101000a900473ffffffffffffffffffffffffffffffffffffffff16908060030154908060040160009054906101000a900473ffffffffffffffffffffffffffffffffffffffff16908060050154908060080160009054906101000a900460ff16905087565b60025481565b600080600080600080600080600160008060019054906101000a900473ffffffffffffffffffffffffffffffffffffffff1673ffffffffffffffffffffffffffffffffffffffff1663f98f211a6040518163ffffffff1660e01b815260040160206040518083038186803b158015610d8857600080fd5b505afa158015610d9c573d6000803e3d6000fd5b505050506040513d601f19601f82011682018060405250810190610dc091906114c4565b815260200190815260200160002060025481548110610de257610de1611955565b5b906000526020600020906009020160405180610120016040529081600082015481526020016001820160009054906101000a900473ffffffffffffffffffffffffffffffffffffffff1673ffffffffffffffffffffffffffffffffffffffff1673ffffffffffffffffffffffffffffffffffffffff1681526020016002820160009054906101000a900473ffffffffffffffffffffffffffffffffffffffff1673ffffffffffffffffffffffffffffffffffffffff1673ffffffffffffffffffffffffffffffffffffffff168152602001600382015481526020016004820160009054906101000a900473ffffffffffffffffffffffffffffffffffffffff1673ffffffffffffffffffffffffffffffffffffffff1673ffffffffffffffffffffffffffffffffffffffff1681526020016005820154815260200160068201805480602002602001604051908101604052809291908181526020018280548015610fa157602002820191906000526020600020905b8160009054906101000a900473ffffffffffffffffffffffffffffffffffffffff1673ffffffffffffffffffffffffffffffffffffffff1681526020019060010190808311610f57575b505050505081526020016007820180548060200260200160405190810160405280929190818152602001828054801561102f57602002820191906000526020600020905b8160009054906101000a900473ffffffffffffffffffffffffffffffffffffffff1673ffffffffffffffffffffffffffffffffffffffff1681526020019060010190808311610fe5575b505050505081526020016008820160009054906101000a900460ff16600281111561105d5761105c611926565b5b600281111561106f5761106e611926565b5b815250509050806000015181604001518260200151836060015184608001518560a0015186610100015160028111156110ab576110aa611926565b5b97509750975097509750975097505090919293949596565b60008054906101000a900460ff1615611111576040517f08c379a0000000000000000000000000000000000000000000000000000000008152600401611108906116d2565b60405180910390fd5b80600060016101000a81548173ffffffffffffffffffffffffffffffffffffffff021916908373ffffffffffffffffffffffffffffffffffffffff16021790555060016000806101000a81548160ff02191690831515021790555050565b600080600060019054906101000a900473ffffffffffffffffffffffffffffffffffffffff1673ffffffffffffffffffffffffffffffffffffffff1663f98f211a6040518163ffffffff1660e01b815260040160206040518083038186803b1580156111da57600080fd5b505afa1580156111ee573d6000803e3d6000fd5b505050506040513d601f19601f8201168201806040525081019061121291906114c4565b90506000600281111561122857611227611926565b5b600160008381526020019081526020016000206002548154811061124f5761124e611955565b5b906000526020600020906009020160080160009054906101000a900460ff1660028111156112805761127f611926565b5b1461128f576001915050611295565b60009150505b90565b828054828255906000526020600020908101928215611311579160200282015b828111156113105782518260006101000a81548173ffffffffffffffffffffffffffffffffffffffff021916908373ffffffffffffffffffffffffffffffffffffffff160217905550916020019190600101906112b8565b5b50905061131e9190611322565b5090565b5b8082111561133b576000816000905550600101611323565b5090565b60008135905061134e81611a90565b92915050565b60008151905061136381611a90565b92915050565b60008135905061137881611aa7565b92915050565b60008151905061138d81611aa7565b92915050565b6000813590506113a281611abe565b92915050565b6000815190506113b781611abe565b92915050565b6000602082840312156113d3576113d2611984565b5b60006113e18482850161133f565b91505092915050565b600060208284031215611400576113ff611984565b5b600061140e84828501611354565b91505092915050565b6000806000606084860312156114305761142f611984565b5b600061143e8682870161133f565b935050602061144f8682870161133f565b925050604061146086828701611393565b9150509250925092565b6000602082840312156114805761147f611984565b5b600061148e84828501611369565b91505092915050565b6000602082840312156114ad576114ac611984565b5b60006114bb8482850161137e565b91505092915050565b6000602082840312156114da576114d9611984565b5b60006114e8848285016113a8565b91505092915050565b6000806040838503121561150857611507611984565b5b600061151685828601611393565b925050602061152785828601611393565b9150509250929050565b61153a81611841565b82525050565b61154981611853565b82525050565b6115588161189c565b82525050565b600061156b601c83611830565b915061157682611989565b602082019050919050565b600061158e601b83611830565b9150611599826119b2565b602082019050919050565b60006115b1601383611830565b91506115bc826119db565b602082019050919050565b60006115d4602583611830565b91506115df82611a04565b604082019050919050565b60006115f7600b83611830565b915061160282611a53565b602082019050919050565b61161681611892565b82525050565b60006020820190506116316000830184611531565b92915050565b600060208201905061164c6000830184611540565b92915050565b6000602082019050818103600083015261166b8161155e565b9050919050565b6000602082019050818103600083015261168b81611581565b9050919050565b600060208201905081810360008301526116ab816115a4565b9050919050565b600060208201905081810360008301526116cb816115c7565b9050919050565b600060208201905081810360008301526116eb816115ea565b9050919050565b6000602082019050611707600083018461160d565b92915050565b6000608082019050611722600083018761160d565b61172f6020830186611531565b61173c6040830185611531565b611749606083018461160d565b95945050505050565b600060e082019050611767600083018a61160d565b6117746020830189611531565b6117816040830188611531565b61178e606083018761160d565b61179b6080830186611531565b6117a860a083018561160d565b6117b560c083018461154f565b98975050505050505050565b600060e0820190506117d6600083018a61160d565b6117e36020830189611531565b6117f06040830188611531565b6117fd606083018761160d565b61180a6080830186611531565b61181760a083018561160d565b61182460c083018461160d565b98975050505050505050565b600082825260208201905092915050565b600061184c82611872565b9050919050565b60008115159050919050565b600081905061186d82611a7c565b919050565b600073ffffffffffffffffffffffffffffffffffffffff82169050919050565b6000819050919050565b60006118a78261185f565b9050919050565b60006118b982611892565b91507fffffffffffffffffffffffffffffffffffffffffffffffffffffffffffffffff8214156118ec576118eb6118f7565b5b600182019050919050565b7f4e487b7100000000000000000000000000000000000000000000000000000000600052601160045260246000fd5b7f4e487b7100000000000000000000000000000000000000000000000000000000600052602160045260246000fd5b7f4e487b7100000000000000000000000000000000000000000000000000000000600052603260045260246000fd5b600080fd5b7f6163636573732064656e6965643a206f6e6c7920457865637574657200000000600082015250565b7f6163636573732064656e6965643a206f6e6c792073656e61746f720000000000600082015250565b7f52656163686564206120636f6e73656e73757300000000000000000000000000600082015250565b7f546865206c61746573742070726f706f73616c20686173206e6f207265736f6c60008201527f7574696f6e000000000000000000000000000000000000000000000000000000602082015250565b7f696e697469616c697a6564000000000000000000000000000000000000000000600082015250565b60038110611a8d57611a8c611926565b5b50565b611a9981611841565b8114611aa457600080fd5b50565b611ab081611853565b8114611abb57600080fd5b50565b611ac781611892565b8114611ad257600080fd5b5056fea26469706673582212200a413ea822a7eaa75c39fda65b57b50c9adb50bf2c2390523ae7df65371cac0664736f6c63430008070033",
			"opcodes": "PUSH1 0x80 PUSH1 0x40 MSTORE CALLVALUE DUP1 ISZERO PUSH2 0x10 JUMPI PUSH1 0x0 DUP1 REVERT JUMPDEST POP PUSH2 0x1B0B DUP1 PUSH2 0x20 PUSH1 0x0 CODECOPY PUSH1 0x0 RETURN INVALID PUSH1 0x80 PUSH1 0x40 MSTORE CALLVALUE DUP1 ISZERO PUSH2 0x10 JUMPI PUSH1 0x0 DUP1 REVERT JUMPDEST POP PUSH1 0x4 CALLDATASIZE LT PUSH2 0x88 JUMPI PUSH1 0x0 CALLDATALOAD PUSH1 0xE0 SHR DUP1 PUSH4 0xAFFED0E0 GT PUSH2 0x5B JUMPI DUP1 PUSH4 0xAFFED0E0 EQ PUSH2 0x119 JUMPI DUP1 PUSH4 0xBCC5F702 EQ PUSH2 0x137 JUMPI DUP1 PUSH4 0xC4D66DE8 EQ PUSH2 0x15B JUMPI DUP1 PUSH4 0xEFDD32F1 EQ PUSH2 0x177 JUMPI PUSH2 0x88 JUMP JUMPDEST DUP1 PUSH4 0x32D624F8 EQ PUSH2 0x8D JUMPI DUP1 PUSH4 0x48727DE1 EQ PUSH2 0xAB JUMPI DUP1 PUSH4 0x4B9F5C98 EQ PUSH2 0xC7 JUMPI DUP1 PUSH4 0x63589571 EQ PUSH2 0xE3 JUMPI JUMPDEST PUSH1 0x0 DUP1 REVERT JUMPDEST PUSH2 0x95 PUSH2 0x195 JUMP JUMPDEST PUSH1 0x40 MLOAD PUSH2 0xA2 SWAP2 SWAP1 PUSH2 0x161C JUMP JUMPDEST PUSH1 0x40 MLOAD DUP1 SWAP2 SUB SWAP1 RETURN JUMPDEST PUSH2 0xC5 PUSH1 0x4 DUP1 CALLDATASIZE SUB DUP2 ADD SWAP1 PUSH2 0xC0 SWAP2 SWAP1 PUSH2 0x1417 JUMP JUMPDEST PUSH2 0x1BB JUMP JUMPDEST STOP JUMPDEST PUSH2 0xE1 PUSH1 0x4 DUP1 CALLDATASIZE SUB DUP2 ADD SWAP1 PUSH2 0xDC SWAP2 SWAP1 PUSH2 0x146A JUMP JUMPDEST PUSH2 0x77B JUMP JUMPDEST STOP JUMPDEST PUSH2 0xFD PUSH1 0x4 DUP1 CALLDATASIZE SUB DUP2 ADD SWAP1 PUSH2 0xF8 SWAP2 SWAP1 PUSH2 0x14F1 JUMP JUMPDEST PUSH2 0xC3F JUMP JUMPDEST PUSH1 0x40 MLOAD PUSH2 0x110 SWAP8 SWAP7 SWAP6 SWAP5 SWAP4 SWAP3 SWAP2 SWAP1 PUSH2 0x1752 JUMP JUMPDEST PUSH1 0x40 MLOAD DUP1 SWAP2 SUB SWAP1 RETURN JUMPDEST PUSH2 0x121 PUSH2 0xD0B JUMP JUMPDEST PUSH1 0x40 MLOAD PUSH2 0x12E SWAP2 SWAP1 PUSH2 0x16F2 JUMP JUMPDEST PUSH1 0x40 MLOAD DUP1 SWAP2 SUB SWAP1 RETURN JUMPDEST PUSH2 0x13F PUSH2 0xD11 JUMP JUMPDEST PUSH1 0x40 MLOAD PUSH2 0x152 SWAP8 SWAP7 SWAP6 SWAP5 SWAP4 SWAP3 SWAP2 SWAP1 PUSH2 0x17C1 JUMP JUMPDEST PUSH1 0x40 MLOAD DUP1 SWAP2 SUB SWAP1 RETURN JUMPDEST PUSH2 0x175 PUSH1 0x4 DUP1 CALLDATASIZE SUB DUP2 ADD SWAP1 PUSH2 0x170 SWAP2 SWAP1 PUSH2 0x13BD JUMP JUMPDEST PUSH2 0x10C3 JUMP JUMPDEST STOP JUMPDEST PUSH2 0x17F PUSH2 0x116F JUMP JUMPDEST PUSH1 0x40 MLOAD PUSH2 0x18C SWAP2 SWAP1 PUSH2 0x1637 JUMP JUMPDEST PUSH1 0x40 MLOAD DUP1 SWAP2 SUB SWAP1 RETURN JUMPDEST PUSH1 0x0 PUSH1 0x1 SWAP1 SLOAD SWAP1 PUSH2 0x100 EXP SWAP1 DIV PUSH20 0xFFFFFFFFFFFFFFFFFFFFFFFFFFFFFFFFFFFFFFFF AND DUP2 JUMP JUMPDEST CALLER PUSH20 0xFFFFFFFFFFFFFFFFFFFFFFFFFFFFFFFFFFFFFFFF AND PUSH1 0x0 PUSH1 0x1 SWAP1 SLOAD SWAP1 PUSH2 0x100 EXP SWAP1 DIV PUSH20 0xFFFFFFFFFFFFFFFFFFFFFFFFFFFFFFFFFFFFFFFF AND PUSH20 0xFFFFFFFFFFFFFFFFFFFFFFFFFFFFFFFFFFFFFFFF AND PUSH4 0x925C6FAD PUSH1 0x40 MLOAD DUP2 PUSH4 0xFFFFFFFF AND PUSH1 0xE0 SHL DUP2 MSTORE PUSH1 0x4 ADD PUSH1 0x20 PUSH1 0x40 MLOAD DUP1 DUP4 SUB DUP2 DUP7 DUP1 EXTCODESIZE ISZERO DUP1 ISZERO PUSH2 0x23A JUMPI PUSH1 0x0 DUP1 REVERT JUMPDEST POP GAS STATICCALL ISZERO DUP1 ISZERO PUSH2 0x24E JUMPI RETURNDATASIZE PUSH1 0x0 DUP1 RETURNDATACOPY RETURNDATASIZE PUSH1 0x0 REVERT JUMPDEST POP POP POP POP PUSH1 0x40 MLOAD RETURNDATASIZE PUSH1 0x1F NOT PUSH1 0x1F DUP3 ADD AND DUP3 ADD DUP1 PUSH1 0x40 MSTORE POP DUP2 ADD SWAP1 PUSH2 0x272 SWAP2 SWAP1 PUSH2 0x13EA JUMP JUMPDEST PUSH20 0xFFFFFFFFFFFFFFFFFFFFFFFFFFFFFFFFFFFFFFFF AND EQ PUSH2 0x2C8 JUMPI PUSH1 0x40 MLOAD PUSH32 0x8C379A000000000000000000000000000000000000000000000000000000000 DUP2 MSTORE PUSH1 0x4 ADD PUSH2 0x2BF SWAP1 PUSH2 0x1652 JUMP JUMPDEST PUSH1 0x40 MLOAD DUP1 SWAP2 SUB SWAP1 REVERT JUMPDEST PUSH1 0x0 DUP1 PUSH1 0x1 SWAP1 SLOAD SWAP1 PUSH2 0x100 EXP SWAP1 DIV PUSH20 0xFFFFFFFFFFFFFFFFFFFFFFFFFFFFFFFFFFFFFFFF AND PUSH20 0xFFFFFFFFFFFFFFFFFFFFFFFFFFFFFFFFFFFFFFFF AND PUSH4 0xAA9BBC0C PUSH1 0x40 MLOAD DUP2 PUSH4 0xFFFFFFFF AND PUSH1 0xE0 SHL DUP2 MSTORE PUSH1 0x4 ADD PUSH1 0x20 PUSH1 0x40 MLOAD DUP1 DUP4 SUB DUP2 DUP7 DUP1 EXTCODESIZE ISZERO DUP1 ISZERO PUSH2 0x331 JUMPI PUSH1 0x0 DUP1 REVERT JUMPDEST POP GAS STATICCALL ISZERO DUP1 ISZERO PUSH2 0x345 JUMPI RETURNDATASIZE PUSH1 0x0 DUP1 RETURNDATACOPY RETURNDATASIZE PUSH1 0x0 REVERT JUMPDEST POP POP POP POP PUSH1 0x40 MLOAD RETURNDATASIZE PUSH1 0x1F NOT PUSH1 0x1F DUP3 ADD AND DUP3 ADD DUP1 PUSH1 0x40 MSTORE POP DUP2 ADD SWAP1 PUSH2 0x369 SWAP2 SWAP1 PUSH2 0x14C4 JUMP JUMPDEST SWAP1 POP PUSH1 0x0 DUP1 PUSH1 0x1 SWAP1 SLOAD SWAP1 PUSH2 0x100 EXP SWAP1 DIV PUSH20 0xFFFFFFFFFFFFFFFFFFFFFFFFFFFFFFFFFFFFFFFF AND PUSH20 0xFFFFFFFFFFFFFFFFFFFFFFFFFFFFFFFFFFFFFFFF AND PUSH4 0xF98F211A PUSH1 0x40 MLOAD DUP2 PUSH4 0xFFFFFFFF AND PUSH1 0xE0 SHL DUP2 MSTORE PUSH1 0x4 ADD PUSH1 0x20 PUSH1 0x40 MLOAD DUP1 DUP4 SUB DUP2 DUP7 DUP1 EXTCODESIZE ISZERO DUP1 ISZERO PUSH2 0x3D4 JUMPI PUSH1 0x0 DUP1 REVERT JUMPDEST POP GAS STATICCALL ISZERO DUP1 ISZERO PUSH2 0x3E8 JUMPI RETURNDATASIZE PUSH1 0x0 DUP1 RETURNDATACOPY RETURNDATASIZE PUSH1 0x0 REVERT JUMPDEST POP POP POP POP PUSH1 0x40 MLOAD RETURNDATASIZE PUSH1 0x1F NOT PUSH1 0x1F DUP3 ADD AND DUP3 ADD DUP1 PUSH1 0x40 MSTORE POP DUP2 ADD SWAP1 PUSH2 0x40C SWAP2 SWAP1 PUSH2 0x14C4 JUMP JUMPDEST SWAP1 POP PUSH1 0x0 PUSH1 0x1 PUSH1 0x0 DUP4 DUP2 MSTORE PUSH1 0x20 ADD SWAP1 DUP2 MSTORE PUSH1 0x20 ADD PUSH1 0x0 KECCAK256 DUP1 SLOAD SWAP1 POP EQ ISZERO PUSH2 0x43A JUMPI PUSH1 0x0 PUSH1 0x2 DUP2 SWAP1 SSTORE POP PUSH2 0x500 JUMP JUMPDEST PUSH1 0x0 PUSH1 0x2 DUP2 GT ISZERO PUSH2 0x44E JUMPI PUSH2 0x44D PUSH2 0x1926 JUMP JUMPDEST JUMPDEST PUSH1 0x1 PUSH1 0x0 DUP4 DUP2 MSTORE PUSH1 0x20 ADD SWAP1 DUP2 MSTORE PUSH1 0x20 ADD PUSH1 0x0 KECCAK256 PUSH1 0x2 SLOAD DUP2 SLOAD DUP2 LT PUSH2 0x475 JUMPI PUSH2 0x474 PUSH2 0x1955 JUMP JUMPDEST JUMPDEST SWAP1 PUSH1 0x0 MSTORE PUSH1 0x20 PUSH1 0x0 KECCAK256 SWAP1 PUSH1 0x9 MUL ADD PUSH1 0x8 ADD PUSH1 0x0 SWAP1 SLOAD SWAP1 PUSH2 0x100 EXP SWAP1 DIV PUSH1 0xFF AND PUSH1 0x2 DUP2 GT ISZERO PUSH2 0x4A6 JUMPI PUSH2 0x4A5 PUSH2 0x1926 JUMP JUMPDEST JUMPDEST EQ ISZERO PUSH2 0x4E7 JUMPI PUSH1 0x40 MLOAD PUSH32 0x8C379A000000000000000000000000000000000000000000000000000000000 DUP2 MSTORE PUSH1 0x4 ADD PUSH2 0x4DE SWAP1 PUSH2 0x16B2 JUMP JUMPDEST PUSH1 0x40 MLOAD DUP1 SWAP2 SUB SWAP1 REVERT JUMPDEST PUSH1 0x2 PUSH1 0x0 DUP2 SLOAD DUP1 SWAP3 SWAP2 SWAP1 PUSH2 0x4FA SWAP1 PUSH2 0x18AE JUMP JUMPDEST SWAP2 SWAP1 POP SSTORE POP JUMPDEST PUSH1 0x60 PUSH1 0x1 PUSH1 0x0 DUP4 DUP2 MSTORE PUSH1 0x20 ADD SWAP1 DUP2 MSTORE PUSH1 0x20 ADD PUSH1 0x0 KECCAK256 PUSH1 0x40 MLOAD DUP1 PUSH2 0x120 ADD PUSH1 0x40 MSTORE DUP1 DUP6 DUP2 MSTORE PUSH1 0x20 ADD DUP8 PUSH20 0xFFFFFFFFFFFFFFFFFFFFFFFFFFFFFFFFFFFFFFFF AND DUP2 MSTORE PUSH1 0x20 ADD DUP9 PUSH20 0xFFFFFFFFFFFFFFFFFFFFFFFFFFFFFFFFFFFFFFFF AND DUP2 MSTORE PUSH1 0x20 ADD DUP7 DUP2 MSTORE PUSH1 0x20 ADD CALLER PUSH20 0xFFFFFFFFFFFFFFFFFFFFFFFFFFFFFFFFFFFFFFFF AND DUP2 MSTORE PUSH1 0x20 ADD TIMESTAMP DUP2 MSTORE PUSH1 0x20 ADD DUP4 DUP2 MSTORE PUSH1 0x20 ADD DUP4 DUP2 MSTORE PUSH1 0x20 ADD PUSH1 0x0 PUSH1 0x2 DUP2 GT ISZERO PUSH2 0x5A7 JUMPI PUSH2 0x5A6 PUSH2 0x1926 JUMP JUMPDEST JUMPDEST DUP2 MSTORE POP SWAP1 DUP1 PUSH1 0x1 DUP2 SLOAD ADD DUP1 DUP3 SSTORE DUP1 SWAP2 POP POP PUSH1 0x1 SWAP1 SUB SWAP1 PUSH1 0x0 MSTORE PUSH1 0x20 PUSH1 0x0 KECCAK256 SWAP1 PUSH1 0x9 MUL ADD PUSH1 0x0 SWAP1 SWAP2 SWAP1 SWAP2 SWAP1 SWAP2 POP PUSH1 0x0 DUP3 ADD MLOAD DUP2 PUSH1 0x0 ADD SSTORE PUSH1 0x20 DUP3 ADD MLOAD DUP2 PUSH1 0x1 ADD PUSH1 0x0 PUSH2 0x100 EXP DUP2 SLOAD DUP2 PUSH20 0xFFFFFFFFFFFFFFFFFFFFFFFFFFFFFFFFFFFFFFFF MUL NOT AND SWAP1 DUP4 PUSH20 0xFFFFFFFFFFFFFFFFFFFFFFFFFFFFFFFFFFFFFFFF AND MUL OR SWAP1 SSTORE POP PUSH1 0x40 DUP3 ADD MLOAD DUP2 PUSH1 0x2 ADD PUSH1 0x0 PUSH2 0x100 EXP DUP2 SLOAD DUP2 PUSH20 0xFFFFFFFFFFFFFFFFFFFFFFFFFFFFFFFFFFFFFFFF MUL NOT AND SWAP1 DUP4 PUSH20 0xFFFFFFFFFFFFFFFFFFFFFFFFFFFFFFFFFFFFFFFF AND MUL OR SWAP1 SSTORE POP PUSH1 0x60 DUP3 ADD MLOAD DUP2 PUSH1 0x3 ADD SSTORE PUSH1 0x80 DUP3 ADD MLOAD DUP2 PUSH1 0x4 ADD PUSH1 0x0 PUSH2 0x100 EXP DUP2 SLOAD DUP2 PUSH20 0xFFFFFFFFFFFFFFFFFFFFFFFFFFFFFFFFFFFFFFFF MUL NOT AND SWAP1 DUP4 PUSH20 0xFFFFFFFFFFFFFFFFFFFFFFFFFFFFFFFFFFFFFFFF AND MUL OR SWAP1 SSTORE POP PUSH1 0xA0 DUP3 ADD MLOAD DUP2 PUSH1 0x5 ADD SSTORE PUSH1 0xC0 DUP3 ADD MLOAD DUP2 PUSH1 0x6 ADD SWAP1 DUP1 MLOAD SWAP1 PUSH1 0x20 ADD SWAP1 PUSH2 0x6E2 SWAP3 SWAP2 SWAP1 PUSH2 0x1298 JUMP JUMPDEST POP PUSH1 0xE0 DUP3 ADD MLOAD DUP2 PUSH1 0x7 ADD SWAP1 DUP1 MLOAD SWAP1 PUSH1 0x20 ADD SWAP1 PUSH2 0x6FF SWAP3 SWAP2 SWAP1 PUSH2 0x1298 JUMP JUMPDEST POP PUSH2 0x100 DUP3 ADD MLOAD DUP2 PUSH1 0x8 ADD PUSH1 0x0 PUSH2 0x100 EXP DUP2 SLOAD DUP2 PUSH1 0xFF MUL NOT AND SWAP1 DUP4 PUSH1 0x2 DUP2 GT ISZERO PUSH2 0x72C JUMPI PUSH2 0x72B PUSH2 0x1926 JUMP JUMPDEST JUMPDEST MUL OR SWAP1 SSTORE POP POP POP DUP2 PUSH32 0x3C0D04161EB2BEEB1B6D7ADF44F89524C4C52F312424177F48BD77D9985A8AB9 PUSH1 0x2 SLOAD DUP9 DUP9 DUP9 PUSH1 0x40 MLOAD PUSH2 0x76B SWAP5 SWAP4 SWAP3 SWAP2 SWAP1 PUSH2 0x170D JUMP JUMPDEST PUSH1 0x40 MLOAD DUP1 SWAP2 SUB SWAP1 LOG2 POP POP POP POP POP POP JUMP JUMPDEST PUSH1 0x0 PUSH1 0x1 SWAP1 SLOAD SWAP1 PUSH2 0x100 EXP SWAP1 DIV PUSH20 0xFFFFFFFFFFFFFFFFFFFFFFFFFFFFFFFFFFFFFFFF AND PUSH20 0xFFFFFFFFFFFFFFFFFFFFFFFFFFFFFFFFFFFFFFFF AND PUSH4 0x490055C0 CALLER PUSH1 0x40 MLOAD DUP3 PUSH4 0xFFFFFFFF AND PUSH1 0xE0 SHL DUP2 MSTORE PUSH1 0x4 ADD PUSH2 0x7D6 SWAP2 SWAP1 PUSH2 0x161C JUMP JUMPDEST PUSH1 0x20 PUSH1 0x40 MLOAD DUP1 DUP4 SUB DUP2 DUP7 DUP1 EXTCODESIZE ISZERO DUP1 ISZERO PUSH2 0x7EE JUMPI PUSH1 0x0 DUP1 REVERT JUMPDEST POP GAS STATICCALL ISZERO DUP1 ISZERO PUSH2 0x802 JUMPI RETURNDATASIZE PUSH1 0x0 DUP1 RETURNDATACOPY RETURNDATASIZE PUSH1 0x0 REVERT JUMPDEST POP POP POP POP PUSH1 0x40 MLOAD RETURNDATASIZE PUSH1 0x1F NOT PUSH1 0x1F DUP3 ADD AND DUP3 ADD DUP1 PUSH1 0x40 MSTORE POP DUP2 ADD SWAP1 PUSH2 0x826 SWAP2 SWAP1 PUSH2 0x1497 JUMP JUMPDEST PUSH2 0x865 JUMPI PUSH1 0x40 MLOAD PUSH32 0x8C379A000000000000000000000000000000000000000000000000000000000 DUP2 MSTORE PUSH1 0x4 ADD PUSH2 0x85C SWAP1 PUSH2 0x1672 JUMP JUMPDEST PUSH1 0x40 MLOAD DUP1 SWAP2 SUB SWAP1 REVERT JUMPDEST PUSH1 0x0 DUP1 PUSH1 0x1 SWAP1 SLOAD SWAP1 PUSH2 0x100 EXP SWAP1 DIV PUSH20 0xFFFFFFFFFFFFFFFFFFFFFFFFFFFFFFFFFFFFFFFF AND PUSH20 0xFFFFFFFFFFFFFFFFFFFFFFFFFFFFFFFFFFFFFFFF AND PUSH4 0xF98F211A PUSH1 0x40 MLOAD DUP2 PUSH4 0xFFFFFFFF AND PUSH1 0xE0 SHL DUP2 MSTORE PUSH1 0x4 ADD PUSH1 0x20 PUSH1 0x40 MLOAD DUP1 DUP4 SUB DUP2 DUP7 DUP1 EXTCODESIZE ISZERO DUP1 ISZERO PUSH2 0x8CE JUMPI PUSH1 0x0 DUP1 REVERT JUMPDEST POP GAS STATICCALL ISZERO DUP1 ISZERO PUSH2 0x8E2 JUMPI RETURNDATASIZE PUSH1 0x0 DUP1 RETURNDATACOPY RETURNDATASIZE PUSH1 0x0 REVERT JUMPDEST POP POP POP POP PUSH1 0x40 MLOAD RETURNDATASIZE PUSH1 0x1F NOT PUSH1 0x1F DUP3 ADD AND DUP3 ADD DUP1 PUSH1 0x40 MSTORE POP DUP2 ADD SWAP1 PUSH2 0x906 SWAP2 SWAP1 PUSH2 0x14C4 JUMP JUMPDEST SWAP1 POP PUSH1 0x0 PUSH1 0x2 DUP2 GT ISZERO PUSH2 0x91C JUMPI PUSH2 0x91B PUSH2 0x1926 JUMP JUMPDEST JUMPDEST PUSH1 0x1 PUSH1 0x0 DUP4 DUP2 MSTORE PUSH1 0x20 ADD SWAP1 DUP2 MSTORE PUSH1 0x20 ADD PUSH1 0x0 KECCAK256 PUSH1 0x2 SLOAD DUP2 SLOAD DUP2 LT PUSH2 0x943 JUMPI PUSH2 0x942 PUSH2 0x1955 JUMP JUMPDEST JUMPDEST SWAP1 PUSH1 0x0 MSTORE PUSH1 0x20 PUSH1 0x0 KECCAK256 SWAP1 PUSH1 0x9 MUL ADD PUSH1 0x8 ADD PUSH1 0x0 SWAP1 SLOAD SWAP1 PUSH2 0x100 EXP SWAP1 DIV PUSH1 0xFF AND PUSH1 0x2 DUP2 GT ISZERO PUSH2 0x974 JUMPI PUSH2 0x973 PUSH2 0x1926 JUMP JUMPDEST JUMPDEST EQ PUSH2 0x9B4 JUMPI PUSH1 0x40 MLOAD PUSH32 0x8C379A000000000000000000000000000000000000000000000000000000000 DUP2 MSTORE PUSH1 0x4 ADD PUSH2 0x9AB SWAP1 PUSH2 0x1692 JUMP JUMPDEST PUSH1 0x40 MLOAD DUP1 SWAP2 SUB SWAP1 REVERT JUMPDEST DUP2 ISZERO PUSH2 0xAFC JUMPI PUSH1 0x1 PUSH1 0x0 DUP3 DUP2 MSTORE PUSH1 0x20 ADD SWAP1 DUP2 MSTORE PUSH1 0x20 ADD PUSH1 0x0 KECCAK256 PUSH1 0x2 SLOAD DUP2 SLOAD DUP2 LT PUSH2 0x9E1 JUMPI PUSH2 0x9E0 PUSH2 0x1955 JUMP JUMPDEST JUMPDEST SWAP1 PUSH1 0x0 MSTORE PUSH1 0x20 PUSH1 0x0 KECCAK256 SWAP1 PUSH1 0x9 MUL ADD PUSH1 0x6 ADD CALLER SWAP1 DUP1 PUSH1 0x1 DUP2 SLOAD ADD DUP1 DUP3 SSTORE DUP1 SWAP2 POP POP PUSH1 0x1 SWAP1 SUB SWAP1 PUSH1 0x0 MSTORE PUSH1 0x20 PUSH1 0x0 KECCAK256 ADD PUSH1 0x0 SWAP1 SWAP2 SWAP1 SWAP2 SWAP1 SWAP2 PUSH2 0x100 EXP DUP2 SLOAD DUP2 PUSH20 0xFFFFFFFFFFFFFFFFFFFFFFFFFFFFFFFFFFFFFFFF MUL NOT AND SWAP1 DUP4 PUSH20 0xFFFFFFFFFFFFFFFFFFFFFFFFFFFFFFFFFFFFFFFF AND MUL OR SWAP1 SSTORE POP PUSH1 0x6 PUSH1 0x1 PUSH1 0x0 DUP4 DUP2 MSTORE PUSH1 0x20 ADD SWAP1 DUP2 MSTORE PUSH1 0x20 ADD PUSH1 0x0 KECCAK256 PUSH1 0x2 SLOAD DUP2 SLOAD DUP2 LT PUSH2 0xA7C JUMPI PUSH2 0xA7B PUSH2 0x1955 JUMP JUMPDEST JUMPDEST SWAP1 PUSH1 0x0 MSTORE PUSH1 0x20 PUSH1 0x0 KECCAK256 SWAP1 PUSH1 0x9 MUL ADD PUSH1 0x6 ADD DUP1 SLOAD SWAP1 POP LT PUSH2 0xAF7 JUMPI PUSH1 0x1 DUP1 PUSH1 0x0 DUP4 DUP2 MSTORE PUSH1 0x20 ADD SWAP1 DUP2 MSTORE PUSH1 0x20 ADD PUSH1 0x0 KECCAK256 PUSH1 0x2 SLOAD DUP2 SLOAD DUP2 LT PUSH2 0xABE JUMPI PUSH2 0xABD PUSH2 0x1955 JUMP JUMPDEST JUMPDEST SWAP1 PUSH1 0x0 MSTORE PUSH1 0x20 PUSH1 0x0 KECCAK256 SWAP1 PUSH1 0x9 MUL ADD PUSH1 0x8 ADD PUSH1 0x0 PUSH2 0x100 EXP DUP2 SLOAD DUP2 PUSH1 0xFF MUL NOT AND SWAP1 DUP4 PUSH1 0x2 DUP2 GT ISZERO PUSH2 0xAF1 JUMPI PUSH2 0xAF0 PUSH2 0x1926 JUMP JUMPDEST JUMPDEST MUL OR SWAP1 SSTORE POP JUMPDEST PUSH2 0xC3B JUMP JUMPDEST PUSH1 0x1 PUSH1 0x0 DUP3 DUP2 MSTORE PUSH1 0x20 ADD SWAP1 DUP2 MSTORE PUSH1 0x20 ADD PUSH1 0x0 KECCAK256 PUSH1 0x2 SLOAD DUP2 SLOAD DUP2 LT PUSH2 0xB23 JUMPI PUSH2 0xB22 PUSH2 0x1955 JUMP JUMPDEST JUMPDEST SWAP1 PUSH1 0x0 MSTORE PUSH1 0x20 PUSH1 0x0 KECCAK256 SWAP1 PUSH1 0x9 MUL ADD PUSH1 0x7 ADD CALLER SWAP1 DUP1 PUSH1 0x1 DUP2 SLOAD ADD DUP1 DUP3 SSTORE DUP1 SWAP2 POP POP PUSH1 0x1 SWAP1 SUB SWAP1 PUSH1 0x0 MSTORE PUSH1 0x20 PUSH1 0x0 KECCAK256 ADD PUSH1 0x0 SWAP1 SWAP2 SWAP1 SWAP2 SWAP1 SWAP2 PUSH2 0x100 EXP DUP2 SLOAD DUP2 PUSH20 0xFFFFFFFFFFFFFFFFFFFFFFFFFFFFFFFFFFFFFFFF MUL NOT AND SWAP1 DUP4 PUSH20 0xFFFFFFFFFFFFFFFFFFFFFFFFFFFFFFFFFFFFFFFF AND MUL OR SWAP1 SSTORE POP PUSH1 0x6 PUSH1 0x1 PUSH1 0x0 DUP4 DUP2 MSTORE PUSH1 0x20 ADD SWAP1 DUP2 MSTORE PUSH1 0x20 ADD PUSH1 0x0 KECCAK256 PUSH1 0x2 SLOAD DUP2 SLOAD DUP2 LT PUSH2 0xBBE JUMPI PUSH2 0xBBD PUSH2 0x1955 JUMP JUMPDEST JUMPDEST SWAP1 PUSH1 0x0 MSTORE PUSH1 0x20 PUSH1 0x0 KECCAK256 SWAP1 PUSH1 0x9 MUL ADD PUSH1 0x7 ADD DUP1 SLOAD SWAP1 POP LT PUSH2 0xC3A JUMPI PUSH1 0x2 PUSH1 0x1 PUSH1 0x0 DUP4 DUP2 MSTORE PUSH1 0x20 ADD SWAP1 DUP2 MSTORE PUSH1 0x20 ADD PUSH1 0x0 KECCAK256 PUSH1 0x2 SLOAD DUP2 SLOAD DUP2 LT PUSH2 0xC01 JUMPI PUSH2 0xC00 PUSH2 0x1955 JUMP JUMPDEST JUMPDEST SWAP1 PUSH1 0x0 MSTORE PUSH1 0x20 PUSH1 0x0 KECCAK256 SWAP1 PUSH1 0x9 MUL ADD PUSH1 0x8 ADD PUSH1 0x0 PUSH2 0x100 EXP DUP2 SLOAD DUP2 PUSH1 0xFF MUL NOT AND SWAP1 DUP4 PUSH1 0x2 DUP2 GT ISZERO PUSH2 0xC34 JUMPI PUSH2 0xC33 PUSH2 0x1926 JUMP JUMPDEST JUMPDEST MUL OR SWAP1 SSTORE POP JUMPDEST JUMPDEST POP POP JUMP JUMPDEST PUSH1 0x1 PUSH1 0x20 MSTORE DUP2 PUSH1 0x0 MSTORE PUSH1 0x40 PUSH1 0x0 KECCAK256 DUP2 DUP2 SLOAD DUP2 LT PUSH2 0xC5B JUMPI PUSH1 0x0 DUP1 REVERT JUMPDEST SWAP1 PUSH1 0x0 MSTORE PUSH1 0x20 PUSH1 0x0 KECCAK256 SWAP1 PUSH1 0x9 MUL ADD PUSH1 0x0 SWAP2 POP SWAP2 POP POP DUP1 PUSH1 0x0 ADD SLOAD SWAP1 DUP1 PUSH1 0x1 ADD PUSH1 0x0 SWAP1 SLOAD SWAP1 PUSH2 0x100 EXP SWAP1 DIV PUSH20 0xFFFFFFFFFFFFFFFFFFFFFFFFFFFFFFFFFFFFFFFF AND SWAP1 DUP1 PUSH1 0x2 ADD PUSH1 0x0 SWAP1 SLOAD SWAP1 PUSH2 0x100 EXP SWAP1 DIV PUSH20 0xFFFFFFFFFFFFFFFFFFFFFFFFFFFFFFFFFFFFFFFF AND SWAP1 DUP1 PUSH1 0x3 ADD SLOAD SWAP1 DUP1 PUSH1 0x4 ADD PUSH1 0x0 SWAP1 SLOAD SWAP1 PUSH2 0x100 EXP SWAP1 DIV PUSH20 0xFFFFFFFFFFFFFFFFFFFFFFFFFFFFFFFFFFFFFFFF AND SWAP1 DUP1 PUSH1 0x5 ADD SLOAD SWAP1 DUP1 PUSH1 0x8 ADD PUSH1 0x0 SWAP1 SLOAD SWAP1 PUSH2 0x100 EXP SWAP1 DIV PUSH1 0xFF AND SWAP1 POP DUP8 JUMP JUMPDEST PUSH1 0x2 SLOAD DUP2 JUMP JUMPDEST PUSH1 0x0 DUP1 PUSH1 0x0 DUP1 PUSH1 0x0 DUP1 PUSH1 0x0 DUP1 PUSH1 0x1 PUSH1 0x0 DUP1 PUSH1 0x1 SWAP1 SLOAD SWAP1 PUSH2 0x100 EXP SWAP1 DIV PUSH20 0xFFFFFFFFFFFFFFFFFFFFFFFFFFFFFFFFFFFFFFFF AND PUSH20 0xFFFFFFFFFFFFFFFFFFFFFFFFFFFFFFFFFFFFFFFF AND PUSH4 0xF98F211A PUSH1 0x40 MLOAD DUP2 PUSH4 0xFFFFFFFF AND PUSH1 0xE0 SHL DUP2 MSTORE PUSH1 0x4 ADD PUSH1 0x20 PUSH1 0x40 MLOAD DUP1 DUP4 SUB DUP2 DUP7 DUP1 EXTCODESIZE ISZERO DUP1 ISZERO PUSH2 0xD88 JUMPI PUSH1 0x0 DUP1 REVERT JUMPDEST POP GAS STATICCALL ISZERO DUP1 ISZERO PUSH2 0xD9C JUMPI RETURNDATASIZE PUSH1 0x0 DUP1 RETURNDATACOPY RETURNDATASIZE PUSH1 0x0 REVERT JUMPDEST POP POP POP POP PUSH1 0x40 MLOAD RETURNDATASIZE PUSH1 0x1F NOT PUSH1 0x1F DUP3 ADD AND DUP3 ADD DUP1 PUSH1 0x40 MSTORE POP DUP2 ADD SWAP1 PUSH2 0xDC0 SWAP2 SWAP1 PUSH2 0x14C4 JUMP JUMPDEST DUP2 MSTORE PUSH1 0x20 ADD SWAP1 DUP2 MSTORE PUSH1 0x20 ADD PUSH1 0x0 KECCAK256 PUSH1 0x2 SLOAD DUP2 SLOAD DUP2 LT PUSH2 0xDE2 JUMPI PUSH2 0xDE1 PUSH2 0x1955 JUMP JUMPDEST JUMPDEST SWAP1 PUSH1 0x0 MSTORE PUSH1 0x20 PUSH1 0x0 KECCAK256 SWAP1 PUSH1 0x9 MUL ADD PUSH1 0x40 MLOAD DUP1 PUSH2 0x120 ADD PUSH1 0x40 MSTORE SWAP1 DUP2 PUSH1 0x0 DUP3 ADD SLOAD DUP2 MSTORE PUSH1 0x20 ADD PUSH1 0x1 DUP3 ADD PUSH1 0x0 SWAP1 SLOAD SWAP1 PUSH2 0x100 EXP SWAP1 DIV PUSH20 0xFFFFFFFFFFFFFFFFFFFFFFFFFFFFFFFFFFFFFFFF AND PUSH20 0xFFFFFFFFFFFFFFFFFFFFFFFFFFFFFFFFFFFFFFFF AND PUSH20 0xFFFFFFFFFFFFFFFFFFFFFFFFFFFFFFFFFFFFFFFF AND DUP2 MSTORE PUSH1 0x20 ADD PUSH1 0x2 DUP3 ADD PUSH1 0x0 SWAP1 SLOAD SWAP1 PUSH2 0x100 EXP SWAP1 DIV PUSH20 0xFFFFFFFFFFFFFFFFFFFFFFFFFFFFFFFFFFFFFFFF AND PUSH20 0xFFFFFFFFFFFFFFFFFFFFFFFFFFFFFFFFFFFFFFFF AND PUSH20 0xFFFFFFFFFFFFFFFFFFFFFFFFFFFFFFFFFFFFFFFF AND DUP2 MSTORE PUSH1 0x20 ADD PUSH1 0x3 DUP3 ADD SLOAD DUP2 MSTORE PUSH1 0x20 ADD PUSH1 0x4 DUP3 ADD PUSH1 0x0 SWAP1 SLOAD SWAP1 PUSH2 0x100 EXP SWAP1 DIV PUSH20 0xFFFFFFFFFFFFFFFFFFFFFFFFFFFFFFFFFFFFFFFF AND PUSH20 0xFFFFFFFFFFFFFFFFFFFFFFFFFFFFFFFFFFFFFFFF AND PUSH20 0xFFFFFFFFFFFFFFFFFFFFFFFFFFFFFFFFFFFFFFFF AND DUP2 MSTORE PUSH1 0x20 ADD PUSH1 0x5 DUP3 ADD SLOAD DUP2 MSTORE PUSH1 0x20 ADD PUSH1 0x6 DUP3 ADD DUP1 SLOAD DUP1 PUSH1 0x20 MUL PUSH1 0x20 ADD PUSH1 0x40 MLOAD SWAP1 DUP2 ADD PUSH1 0x40 MSTORE DUP1 SWAP3 SWAP2 SWAP1 DUP2 DUP2 MSTORE PUSH1 0x20 ADD DUP3 DUP1 SLOAD DUP1 ISZERO PUSH2 0xFA1 JUMPI PUSH1 0x20 MUL DUP3 ADD SWAP2 SWAP1 PUSH1 0x0 MSTORE PUSH1 0x20 PUSH1 0x0 KECCAK256 SWAP1 JUMPDEST DUP2 PUSH1 0x0 SWAP1 SLOAD SWAP1 PUSH2 0x100 EXP SWAP1 DIV PUSH20 0xFFFFFFFFFFFFFFFFFFFFFFFFFFFFFFFFFFFFFFFF AND PUSH20 0xFFFFFFFFFFFFFFFFFFFFFFFFFFFFFFFFFFFFFFFF AND DUP2 MSTORE PUSH1 0x20 ADD SWAP1 PUSH1 0x1 ADD SWAP1 DUP1 DUP4 GT PUSH2 0xF57 JUMPI JUMPDEST POP POP POP POP POP DUP2 MSTORE PUSH1 0x20 ADD PUSH1 0x7 DUP3 ADD DUP1 SLOAD DUP1 PUSH1 0x20 MUL PUSH1 0x20 ADD PUSH1 0x40 MLOAD SWAP1 DUP2 ADD PUSH1 0x40 MSTORE DUP1 SWAP3 SWAP2 SWAP1 DUP2 DUP2 MSTORE PUSH1 0x20 ADD DUP3 DUP1 SLOAD DUP1 ISZERO PUSH2 0x102F JUMPI PUSH1 0x20 MUL DUP3 ADD SWAP2 SWAP1 PUSH1 0x0 MSTORE PUSH1 0x20 PUSH1 0x0 KECCAK256 SWAP1 JUMPDEST DUP2 PUSH1 0x0 SWAP1 SLOAD SWAP1 PUSH2 0x100 EXP SWAP1 DIV PUSH20 0xFFFFFFFFFFFFFFFFFFFFFFFFFFFFFFFFFFFFFFFF AND PUSH20 0xFFFFFFFFFFFFFFFFFFFFFFFFFFFFFFFFFFFFFFFF AND DUP2 MSTORE PUSH1 0x20 ADD SWAP1 PUSH1 0x1 ADD SWAP1 DUP1 DUP4 GT PUSH2 0xFE5 JUMPI JUMPDEST POP POP POP POP POP DUP2 MSTORE PUSH1 0x20 ADD PUSH1 0x8 DUP3 ADD PUSH1 0x0 SWAP1 SLOAD SWAP1 PUSH2 0x100 EXP SWAP1 DIV PUSH1 0xFF AND PUSH1 0x2 DUP2 GT ISZERO PUSH2 0x105D JUMPI PUSH2 0x105C PUSH2 0x1926 JUMP JUMPDEST JUMPDEST PUSH1 0x2 DUP2 GT ISZERO PUSH2 0x106F JUMPI PUSH2 0x106E PUSH2 0x1926 JUMP JUMPDEST JUMPDEST DUP2 MSTORE POP POP SWAP1 POP DUP1 PUSH1 0x0 ADD MLOAD DUP2 PUSH1 0x40 ADD MLOAD DUP3 PUSH1 0x20 ADD MLOAD DUP4 PUSH1 0x60 ADD MLOAD DUP5 PUSH1 0x80 ADD MLOAD DUP6 PUSH1 0xA0 ADD MLOAD DUP7 PUSH2 0x100 ADD MLOAD PUSH1 0x2 DUP2 GT ISZERO PUSH2 0x10AB JUMPI PUSH2 0x10AA PUSH2 0x1926 JUMP JUMPDEST JUMPDEST SWAP8 POP SWAP8 POP SWAP8 POP SWAP8 POP SWAP8 POP SWAP8 POP SWAP8 POP POP SWAP1 SWAP2 SWAP3 SWAP4 SWAP5 SWAP6 SWAP7 JUMP JUMPDEST PUSH1 0x0 DUP1 SLOAD SWAP1 PUSH2 0x100 EXP SWAP1 DIV PUSH1 0xFF AND ISZERO PUSH2 0x1111 JUMPI PUSH1 0x40 MLOAD PUSH32 0x8C379A000000000000000000000000000000000000000000000000000000000 DUP2 MSTORE PUSH1 0x4 ADD PUSH2 0x1108 SWAP1 PUSH2 0x16D2 JUMP JUMPDEST PUSH1 0x40 MLOAD DUP1 SWAP2 SUB SWAP1 REVERT JUMPDEST DUP1 PUSH1 0x0 PUSH1 0x1 PUSH2 0x100 EXP DUP2 SLOAD DUP2 PUSH20 0xFFFFFFFFFFFFFFFFFFFFFFFFFFFFFFFFFFFFFFFF MUL NOT AND SWAP1 DUP4 PUSH20 0xFFFFFFFFFFFFFFFFFFFFFFFFFFFFFFFFFFFFFFFF AND MUL OR SWAP1 SSTORE POP PUSH1 0x1 PUSH1 0x0 DUP1 PUSH2 0x100 EXP DUP2 SLOAD DUP2 PUSH1 0xFF MUL NOT AND SWAP1 DUP4 ISZERO ISZERO MUL OR SWAP1 SSTORE POP POP JUMP JUMPDEST PUSH1 0x0 DUP1 PUSH1 0x0 PUSH1 0x1 SWAP1 SLOAD SWAP1 PUSH2 0x100 EXP SWAP1 DIV PUSH20 0xFFFFFFFFFFFFFFFFFFFFFFFFFFFFFFFFFFFFFFFF AND PUSH20 0xFFFFFFFFFFFFFFFFFFFFFFFFFFFFFFFFFFFFFFFF AND PUSH4 0xF98F211A PUSH1 0x40 MLOAD DUP2 PUSH4 0xFFFFFFFF AND PUSH1 0xE0 SHL DUP2 MSTORE PUSH1 0x4 ADD PUSH1 0x20 PUSH1 0x40 MLOAD DUP1 DUP4 SUB DUP2 DUP7 DUP1 EXTCODESIZE ISZERO DUP1 ISZERO PUSH2 0x11DA JUMPI PUSH1 0x0 DUP1 REVERT JUMPDEST POP GAS STATICCALL ISZERO DUP1 ISZERO PUSH2 0x11EE JUMPI RETURNDATASIZE PUSH1 0x0 DUP1 RETURNDATACOPY RETURNDATASIZE PUSH1 0x0 REVERT JUMPDEST POP POP POP POP PUSH1 0x40 MLOAD RETURNDATASIZE PUSH1 0x1F NOT PUSH1 0x1F DUP3 ADD AND DUP3 ADD DUP1 PUSH1 0x40 MSTORE POP DUP2 ADD SWAP1 PUSH2 0x1212 SWAP2 SWAP1 PUSH2 0x14C4 JUMP JUMPDEST SWAP1 POP PUSH1 0x0 PUSH1 0x2 DUP2 GT ISZERO PUSH2 0x1228 JUMPI PUSH2 0x1227 PUSH2 0x1926 JUMP JUMPDEST JUMPDEST PUSH1 0x1 PUSH1 0x0 DUP4 DUP2 MSTORE PUSH1 0x20 ADD SWAP1 DUP2 MSTORE PUSH1 0x20 ADD PUSH1 0x0 KECCAK256 PUSH1 0x2 SLOAD DUP2 SLOAD DUP2 LT PUSH2 0x124F JUMPI PUSH2 0x124E PUSH2 0x1955 JUMP JUMPDEST JUMPDEST SWAP1 PUSH1 0x0 MSTORE PUSH1 0x20 PUSH1 0x0 KECCAK256 SWAP1 PUSH1 0x9 MUL ADD PUSH1 0x8 ADD PUSH1 0x0 SWAP1 SLOAD SWAP1 PUSH2 0x100 EXP SWAP1 DIV PUSH1 0xFF AND PUSH1 0x2 DUP2 GT ISZERO PUSH2 0x1280 JUMPI PUSH2 0x127F PUSH2 0x1926 JUMP JUMPDEST JUMPDEST EQ PUSH2 0x128F JUMPI PUSH1 0x1 SWAP2 POP POP PUSH2 0x1295 JUMP JUMPDEST PUSH1 0x0 SWAP2 POP POP JUMPDEST SWAP1 JUMP JUMPDEST DUP3 DUP1 SLOAD DUP3 DUP3 SSTORE SWAP1 PUSH1 0x0 MSTORE PUSH1 0x20 PUSH1 0x0 KECCAK256 SWAP1 DUP2 ADD SWAP3 DUP3 ISZERO PUSH2 0x1311 JUMPI SWAP2 PUSH1 0x20 MUL DUP3 ADD JUMPDEST DUP3 DUP2 GT ISZERO PUSH2 0x1310 JUMPI DUP3 MLOAD DUP3 PUSH1 0x0 PUSH2 0x100 EXP DUP2 SLOAD DUP2 PUSH20 0xFFFFFFFFFFFFFFFFFFFFFFFFFFFFFFFFFFFFFFFF MUL NOT AND SWAP1 DUP4 PUSH20 0xFFFFFFFFFFFFFFFFFFFFFFFFFFFFFFFFFFFFFFFF AND MUL OR SWAP1 SSTORE POP SWAP2 PUSH1 0x20 ADD SWAP2 SWAP1 PUSH1 0x1 ADD SWAP1 PUSH2 0x12B8 JUMP JUMPDEST JUMPDEST POP SWAP1 POP PUSH2 0x131E SWAP2 SWAP1 PUSH2 0x1322 JUMP JUMPDEST POP SWAP1 JUMP JUMPDEST JUMPDEST DUP1 DUP3 GT ISZERO PUSH2 0x133B JUMPI PUSH1 0x0 DUP2 PUSH1 0x0 SWAP1 SSTORE POP PUSH1 0x1 ADD PUSH2 0x1323 JUMP JUMPDEST POP SWAP1 JUMP JUMPDEST PUSH1 0x0 DUP2 CALLDATALOAD SWAP1 POP PUSH2 0x134E DUP2 PUSH2 0x1A90 JUMP JUMPDEST SWAP3 SWAP2 POP POP JUMP JUMPDEST PUSH1 0x0 DUP2 MLOAD SWAP1 POP PUSH2 0x1363 DUP2 PUSH2 0x1A90 JUMP JUMPDEST SWAP3 SWAP2 POP POP JUMP JUMPDEST PUSH1 0x0 DUP2 CALLDATALOAD SWAP1 POP PUSH2 0x1378 DUP2 PUSH2 0x1AA7 JUMP JUMPDEST SWAP3 SWAP2 POP POP JUMP JUMPDEST PUSH1 0x0 DUP2 MLOAD SWAP1 POP PUSH2 0x138D DUP2 PUSH2 0x1AA7 JUMP JUMPDEST SWAP3 SWAP2 POP POP JUMP JUMPDEST PUSH1 0x0 DUP2 CALLDATALOAD SWAP1 POP PUSH2 0x13A2 DUP2 PUSH2 0x1ABE JUMP JUMPDEST SWAP3 SWAP2 POP POP JUMP JUMPDEST PUSH1 0x0 DUP2 MLOAD SWAP1 POP PUSH2 0x13B7 DUP2 PUSH2 0x1ABE JUMP JUMPDEST SWAP3 SWAP2 POP POP JUMP JUMPDEST PUSH1 0x0 PUSH1 0x20 DUP3 DUP5 SUB SLT ISZERO PUSH2 0x13D3 JUMPI PUSH2 0x13D2 PUSH2 0x1984 JUMP JUMPDEST JUMPDEST PUSH1 0x0 PUSH2 0x13E1 DUP5 DUP3 DUP6 ADD PUSH2 0x133F JUMP JUMPDEST SWAP2 POP POP SWAP3 SWAP2 POP POP JUMP JUMPDEST PUSH1 0x0 PUSH1 0x20 DUP3 DUP5 SUB SLT ISZERO PUSH2 0x1400 JUMPI PUSH2 0x13FF PUSH2 0x1984 JUMP JUMPDEST JUMPDEST PUSH1 0x0 PUSH2 0x140E DUP5 DUP3 DUP6 ADD PUSH2 0x1354 JUMP JUMPDEST SWAP2 POP POP SWAP3 SWAP2 POP POP JUMP JUMPDEST PUSH1 0x0 DUP1 PUSH1 0x0 PUSH1 0x60 DUP5 DUP7 SUB SLT ISZERO PUSH2 0x1430 JUMPI PUSH2 0x142F PUSH2 0x1984 JUMP JUMPDEST JUMPDEST PUSH1 0x0 PUSH2 0x143E DUP7 DUP3 DUP8 ADD PUSH2 0x133F JUMP JUMPDEST SWAP4 POP POP PUSH1 0x20 PUSH2 0x144F DUP7 DUP3 DUP8 ADD PUSH2 0x133F JUMP JUMPDEST SWAP3 POP POP PUSH1 0x40 PUSH2 0x1460 DUP7 DUP3 DUP8 ADD PUSH2 0x1393 JUMP JUMPDEST SWAP2 POP POP SWAP3 POP SWAP3 POP SWAP3 JUMP JUMPDEST PUSH1 0x0 PUSH1 0x20 DUP3 DUP5 SUB SLT ISZERO PUSH2 0x1480 JUMPI PUSH2 0x147F PUSH2 0x1984 JUMP JUMPDEST JUMPDEST PUSH1 0x0 PUSH2 0x148E DUP5 DUP3 DUP6 ADD PUSH2 0x1369 JUMP JUMPDEST SWAP2 POP POP SWAP3 SWAP2 POP POP JUMP JUMPDEST PUSH1 0x0 PUSH1 0x20 DUP3 DUP5 SUB SLT ISZERO PUSH2 0x14AD JUMPI PUSH2 0x14AC PUSH2 0x1984 JUMP JUMPDEST JUMPDEST PUSH1 0x0 PUSH2 0x14BB DUP5 DUP3 DUP6 ADD PUSH2 0x137E JUMP JUMPDEST SWAP2 POP POP SWAP3 SWAP2 POP POP JUMP JUMPDEST PUSH1 0x0 PUSH1 0x20 DUP3 DUP5 SUB SLT ISZERO PUSH2 0x14DA JUMPI PUSH2 0x14D9 PUSH2 0x1984 JUMP JUMPDEST JUMPDEST PUSH1 0x0 PUSH2 0x14E8 DUP5 DUP3 DUP6 ADD PUSH2 0x13A8 JUMP JUMPDEST SWAP2 POP POP SWAP3 SWAP2 POP POP JUMP JUMPDEST PUSH1 0x0 DUP1 PUSH1 0x40 DUP4 DUP6 SUB SLT ISZERO PUSH2 0x1508 JUMPI PUSH2 0x1507 PUSH2 0x1984 JUMP JUMPDEST JUMPDEST PUSH1 0x0 PUSH2 0x1516 DUP6 DUP3 DUP7 ADD PUSH2 0x1393 JUMP JUMPDEST SWAP3 POP POP PUSH1 0x20 PUSH2 0x1527 DUP6 DUP3 DUP7 ADD PUSH2 0x1393 JUMP JUMPDEST SWAP2 POP POP SWAP3 POP SWAP3 SWAP1 POP JUMP JUMPDEST PUSH2 0x153A DUP2 PUSH2 0x1841 JUMP JUMPDEST DUP3 MSTORE POP POP JUMP JUMPDEST PUSH2 0x1549 DUP2 PUSH2 0x1853 JUMP JUMPDEST DUP3 MSTORE POP POP JUMP JUMPDEST PUSH2 0x1558 DUP2 PUSH2 0x189C JUMP JUMPDEST DUP3 MSTORE POP POP JUMP JUMPDEST PUSH1 0x0 PUSH2 0x156B PUSH1 0x1C DUP4 PUSH2 0x1830 JUMP JUMPDEST SWAP2 POP PUSH2 0x1576 DUP3 PUSH2 0x1989 JUMP JUMPDEST PUSH1 0x20 DUP3 ADD SWAP1 POP SWAP2 SWAP1 POP JUMP JUMPDEST PUSH1 0x0 PUSH2 0x158E PUSH1 0x1B DUP4 PUSH2 0x1830 JUMP JUMPDEST SWAP2 POP PUSH2 0x1599 DUP3 PUSH2 0x19B2 JUMP JUMPDEST PUSH1 0x20 DUP3 ADD SWAP1 POP SWAP2 SWAP1 POP JUMP JUMPDEST PUSH1 0x0 PUSH2 0x15B1 PUSH1 0x13 DUP4 PUSH2 0x1830 JUMP JUMPDEST SWAP2 POP PUSH2 0x15BC DUP3 PUSH2 0x19DB JUMP JUMPDEST PUSH1 0x20 DUP3 ADD SWAP1 POP SWAP2 SWAP1 POP JUMP JUMPDEST PUSH1 0x0 PUSH2 0x15D4 PUSH1 0x25 DUP4 PUSH2 0x1830 JUMP JUMPDEST SWAP2 POP PUSH2 0x15DF DUP3 PUSH2 0x1A04 JUMP JUMPDEST PUSH1 0x40 DUP3 ADD SWAP1 POP SWAP2 SWAP1 POP JUMP JUMPDEST PUSH1 0x0 PUSH2 0x15F7 PUSH1 0xB DUP4 PUSH2 0x1830 JUMP JUMPDEST SWAP2 POP PUSH2 0x1602 DUP3 PUSH2 0x1A53 JUMP JUMPDEST PUSH1 0x20 DUP3 ADD SWAP1 POP SWAP2 SWAP1 POP JUMP JUMPDEST PUSH2 0x1616 DUP2 PUSH2 0x1892 JUMP JUMPDEST DUP3 MSTORE POP POP JUMP JUMPDEST PUSH1 0x0 PUSH1 0x20 DUP3 ADD SWAP1 POP PUSH2 0x1631 PUSH1 0x0 DUP4 ADD DUP5 PUSH2 0x1531 JUMP JUMPDEST SWAP3 SWAP2 POP POP JUMP JUMPDEST PUSH1 0x0 PUSH1 0x20 DUP3 ADD SWAP1 POP PUSH2 0x164C PUSH1 0x0 DUP4 ADD DUP5 PUSH2 0x1540 JUMP JUMPDEST SWAP3 SWAP2 POP POP JUMP JUMPDEST PUSH1 0x0 PUSH1 0x20 DUP3 ADD SWAP1 POP DUP2 DUP2 SUB PUSH1 0x0 DUP4 ADD MSTORE PUSH2 0x166B DUP2 PUSH2 0x155E JUMP JUMPDEST SWAP1 POP SWAP2 SWAP1 POP JUMP JUMPDEST PUSH1 0x0 PUSH1 0x20 DUP3 ADD SWAP1 POP DUP2 DUP2 SUB PUSH1 0x0 DUP4 ADD MSTORE PUSH2 0x168B DUP2 PUSH2 0x1581 JUMP JUMPDEST SWAP1 POP SWAP2 SWAP1 POP JUMP JUMPDEST PUSH1 0x0 PUSH1 0x20 DUP3 ADD SWAP1 POP DUP2 DUP2 SUB PUSH1 0x0 DUP4 ADD MSTORE PUSH2 0x16AB DUP2 PUSH2 0x15A4 JUMP JUMPDEST SWAP1 POP SWAP2 SWAP1 POP JUMP JUMPDEST PUSH1 0x0 PUSH1 0x20 DUP3 ADD SWAP1 POP DUP2 DUP2 SUB PUSH1 0x0 DUP4 ADD MSTORE PUSH2 0x16CB DUP2 PUSH2 0x15C7 JUMP JUMPDEST SWAP1 POP SWAP2 SWAP1 POP JUMP JUMPDEST PUSH1 0x0 PUSH1 0x20 DUP3 ADD SWAP1 POP DUP2 DUP2 SUB PUSH1 0x0 DUP4 ADD MSTORE PUSH2 0x16EB DUP2 PUSH2 0x15EA JUMP JUMPDEST SWAP1 POP SWAP2 SWAP1 POP JUMP JUMPDEST PUSH1 0x0 PUSH1 0x20 DUP3 ADD SWAP1 POP PUSH2 0x1707 PUSH1 0x0 DUP4 ADD DUP5 PUSH2 0x160D JUMP JUMPDEST SWAP3 SWAP2 POP POP JUMP JUMPDEST PUSH1 0x0 PUSH1 0x80 DUP3 ADD SWAP1 POP PUSH2 0x1722 PUSH1 0x0 DUP4 ADD DUP8 PUSH2 0x160D JUMP JUMPDEST PUSH2 0x172F PUSH1 0x20 DUP4 ADD DUP7 PUSH2 0x1531 JUMP JUMPDEST PUSH2 0x173C PUSH1 0x40 DUP4 ADD DUP6 PUSH2 0x1531 JUMP JUMPDEST PUSH2 0x1749 PUSH1 0x60 DUP4 ADD DUP5 PUSH2 0x160D JUMP JUMPDEST SWAP6 SWAP5 POP POP POP POP POP JUMP JUMPDEST PUSH1 0x0 PUSH1 0xE0 DUP3 ADD SWAP1 POP PUSH2 0x1767 PUSH1 0x0 DUP4 ADD DUP11 PUSH2 0x160D JUMP JUMPDEST PUSH2 0x1774 PUSH1 0x20 DUP4 ADD DUP10 PUSH2 0x1531 JUMP JUMPDEST PUSH2 0x1781 PUSH1 0x40 DUP4 ADD DUP9 PUSH2 0x1531 JUMP JUMPDEST PUSH2 0x178E PUSH1 0x60 DUP4 ADD DUP8 PUSH2 0x160D JUMP JUMPDEST PUSH2 0x179B PUSH1 0x80 DUP4 ADD DUP7 PUSH2 0x1531 JUMP JUMPDEST PUSH2 0x17A8 PUSH1 0xA0 DUP4 ADD DUP6 PUSH2 0x160D JUMP JUMPDEST PUSH2 0x17B5 PUSH1 0xC0 DUP4 ADD DUP5 PUSH2 0x154F JUMP JUMPDEST SWAP9 SWAP8 POP POP POP POP POP POP POP POP JUMP JUMPDEST PUSH1 0x0 PUSH1 0xE0 DUP3 ADD SWAP1 POP PUSH2 0x17D6 PUSH1 0x0 DUP4 ADD DUP11 PUSH2 0x160D JUMP JUMPDEST PUSH2 0x17E3 PUSH1 0x20 DUP4 ADD DUP10 PUSH2 0x1531 JUMP JUMPDEST PUSH2 0x17F0 PUSH1 0x40 DUP4 ADD DUP9 PUSH2 0x1531 JUMP JUMPDEST PUSH2 0x17FD PUSH1 0x60 DUP4 ADD DUP8 PUSH2 0x160D JUMP JUMPDEST PUSH2 0x180A PUSH1 0x80 DUP4 ADD DUP7 PUSH2 0x1531 JUMP JUMPDEST PUSH2 0x1817 PUSH1 0xA0 DUP4 ADD DUP6 PUSH2 0x160D JUMP JUMPDEST PUSH2 0x1824 PUSH1 0xC0 DUP4 ADD DUP5 PUSH2 0x160D JUMP JUMPDEST SWAP9 SWAP8 POP POP POP POP POP POP POP POP JUMP JUMPDEST PUSH1 0x0 DUP3 DUP3 MSTORE PUSH1 0x20 DUP3 ADD SWAP1 POP SWAP3 SWAP2 POP POP JUMP JUMPDEST PUSH1 0x0 PUSH2 0x184C DUP3 PUSH2 0x1872 JUMP JUMPDEST SWAP1 POP SWAP2 SWAP1 POP JUMP JUMPDEST PUSH1 0x0 DUP2 ISZERO ISZERO SWAP1 POP SWAP2 SWAP1 POP JUMP JUMPDEST PUSH1 0x0 DUP2 SWAP1 POP PUSH2 0x186D DUP3 PUSH2 0x1A7C JUMP JUMPDEST SWAP2 SWAP1 POP JUMP JUMPDEST PUSH1 0x0 PUSH20 0xFFFFFFFFFFFFFFFFFFFFFFFFFFFFFFFFFFFFFFFF DUP3 AND SWAP1 POP SWAP2 SWAP1 POP JUMP JUMPDEST PUSH1 0x0 DUP2 SWAP1 POP SWAP2 SWAP1 POP JUMP JUMPDEST PUSH1 0x0 PUSH2 0x18A7 DUP3 PUSH2 0x185F JUMP JUMPDEST SWAP1 POP SWAP2 SWAP1 POP JUMP JUMPDEST PUSH1 0x0 PUSH2 0x18B9 DUP3 PUSH2 0x1892 JUMP JUMPDEST SWAP2 POP PUSH32 0xFFFFFFFFFFFFFFFFFFFFFFFFFFFFFFFFFFFFFFFFFFFFFFFFFFFFFFFFFFFFFFFF DUP3 EQ ISZERO PUSH2 0x18EC JUMPI PUSH2 0x18EB PUSH2 0x18F7 JUMP JUMPDEST JUMPDEST PUSH1 0x1 DUP3 ADD SWAP1 POP SWAP2 SWAP1 POP JUMP JUMPDEST PUSH32 0x4E487B7100000000000000000000000000000000000000000000000000000000 PUSH1 0x0 MSTORE PUSH1 0x11 PUSH1 0x4 MSTORE PUSH1 0x24 PUSH1 0x0 REVERT JUMPDEST PUSH32 0x4E487B7100000000000000000000000000000000000000000000000000000000 PUSH1 0x0 MSTORE PUSH1 0x21 PUSH1 0x4 MSTORE PUSH1 0x24 PUSH1 0x0 REVERT JUMPDEST PUSH32 0x4E487B7100000000000000000000000000000000000000000000000000000000 PUSH1 0x0 MSTORE PUSH1 0x32 PUSH1 0x4 MSTORE PUSH1 0x24 PUSH1 0x0 REVERT JUMPDEST PUSH1 0x0 DUP1 REVERT JUMPDEST PUSH32 0x6163636573732064656E6965643A206F6E6C7920457865637574657200000000 PUSH1 0x0 DUP3 ADD MSTORE POP JUMP JUMPDEST PUSH32 0x6163636573732064656E6965643A206F6E6C792073656E61746F720000000000 PUSH1 0x0 DUP3 ADD MSTORE POP JUMP JUMPDEST PUSH32 0x52656163686564206120636F6E73656E73757300000000000000000000000000 PUSH1 0x0 DUP3 ADD MSTORE POP JUMP JUMPDEST PUSH32 0x546865206C61746573742070726F706F73616C20686173206E6F207265736F6C PUSH1 0x0 DUP3 ADD MSTORE PUSH32 0x7574696F6E000000000000000000000000000000000000000000000000000000 PUSH1 0x20 DUP3 ADD MSTORE POP JUMP JUMPDEST PUSH32 0x696E697469616C697A6564000000000000000000000000000000000000000000 PUSH1 0x0 DUP3 ADD MSTORE POP JUMP JUMPDEST PUSH1 0x3 DUP2 LT PUSH2 0x1A8D JUMPI PUSH2 0x1A8C PUSH2 0x1926 JUMP JUMPDEST JUMPDEST POP JUMP JUMPDEST PUSH2 0x1A99 DUP2 PUSH2 0x1841 JUMP JUMPDEST DUP2 EQ PUSH2 0x1AA4 JUMPI PUSH1 0x0 DUP1 REVERT JUMPDEST POP JUMP JUMPDEST PUSH2 0x1AB0 DUP2 PUSH2 0x1853 JUMP JUMPDEST DUP2 EQ PUSH2 0x1ABB JUMPI PUSH1 0x0 DUP1 REVERT JUMPDEST POP JUMP JUMPDEST PUSH2 0x1AC7 DUP2 PUSH2 0x1892 JUMP JUMPDEST DUP2 EQ PUSH2 0x1AD2 JUMPI PUSH1 0x0 DUP1 REVERT JUMPDEST POP JUMP INVALID LOG2 PUSH5 0x6970667358 0x22 SLT KECCAK256 EXP COINBASE RETURNDATACOPY 0xA8 0x22 0xA7 0xEA 0xA7 0x5C CODECOPY REVERT 0xA6 JUMPDEST JUMPI 0xB5 0xC SWAP11 0xDB POP 0xBF 0x2C 0x23 SWAP1 MSTORE GASPRICE 0xE7 0xDF PUSH6 0x371CAC066473 PUSH16 0x6C634300080700330000000000000000 "
		},
		"gasEstimates": {
			"creation": {
				"codeDepositCost": "1384600",
				"executionCost": "1444",
				"totalCost": "1386044"
			},
			"external": {
				"initialize(address)": "51236",
				"isResolution()": "infinite",
				"latestLedgerProposal()": "infinite",
				"ledgers(uint256,uint256)": "infinite",
				"nonce()": "2429",
				"senator()": "2565",
				"sendLedgerProposal(address,address,uint256)": "infinite",
				"vote(bool)": "infinite"
			}
		},
		"methodIdentifiers": {
			"initialize(address)": "c4d66de8",
			"isResolution()": "efdd32f1",
			"latestLedgerProposal()": "bcc5f702",
			"ledgers(uint256,uint256)": "63589571",
			"nonce()": "affed0e0",
			"senator()": "32d624f8",
			"sendLedgerProposal(address,address,uint256)": "48727de1",
			"vote(bool)": "4b9f5c98"
		}
	},
	"abi": [
		{
			"anonymous": false,
			"inputs": [
				{
					"indexed": true,
					"internalType": "uint256",
					"name": "executerId",
					"type": "uint256"
				},
				{
					"indexed": false,
					"internalType": "uint256",
					"name": "nonce",
					"type": "uint256"
				},
				{
					"indexed": false,
					"internalType": "address",
					"name": "token",
					"type": "address"
				},
				{
					"indexed": false,
					"internalType": "address",
					"name": "user",
					"type": "address"
				},
				{
					"indexed": false,
					"internalType": "uint256",
					"name": "amount",
					"type": "uint256"
				}
			],
			"name": "SendLedgerProposal",
			"type": "event"
		},
		{
			"inputs": [
				{
					"internalType": "address",
					"name": "_senator",
					"type": "address"
				}
			],
			"name": "initialize",
			"outputs": [],
			"stateMutability": "nonpayable",
			"type": "function"
		},
		{
			"inputs": [],
			"name": "isResolution",
			"outputs": [
				{
					"internalType": "bool",
					"name": "",
					"type": "bool"
				}
			],
			"stateMutability": "view",
			"type": "function"
		},
		{
			"inputs": [],
			"name": "latestLedgerProposal",
			"outputs": [
				{
					"internalType": "uint256",
					"name": "epochId",
					"type": "uint256"
				},
				{
					"internalType": "address",
					"name": "token",
					"type": "address"
				},
				{
					"internalType": "address",
					"name": "user",
					"type": "address"
				},
				{
					"internalType": "uint256",
					"name": "amount",
					"type": "uint256"
				},
				{
					"internalType": "address",
					"name": "proposer",
					"type": "address"
				},
				{
					"internalType": "uint256",
					"name": "proposalTime",
					"type": "uint256"
				},
				{
					"internalType": "uint256",
					"name": "result",
					"type": "uint256"
				}
			],
			"stateMutability": "view",
			"type": "function"
		},
		{
			"inputs": [
				{
					"internalType": "uint256",
					"name": "",
					"type": "uint256"
				},
				{
					"internalType": "uint256",
					"name": "",
					"type": "uint256"
				}
			],
			"name": "ledgers",
			"outputs": [
				{
					"internalType": "uint256",
					"name": "epochId",
					"type": "uint256"
				},
				{
					"internalType": "address",
					"name": "user",
					"type": "address"
				},
				{
					"internalType": "address",
					"name": "token",
					"type": "address"
				},
				{
					"internalType": "uint256",
					"name": "amount",
					"type": "uint256"
				},
				{
					"internalType": "address",
					"name": "proposer",
					"type": "address"
				},
				{
					"internalType": "uint256",
					"name": "proposalTime",
					"type": "uint256"
				},
				{
					"internalType": "enum ledger.Result",
					"name": "result",
					"type": "uint8"
				}
			],
			"stateMutability": "view",
			"type": "function"
		},
		{
			"inputs": [],
			"name": "nonce",
			"outputs": [
				{
					"internalType": "uint256",
					"name": "",
					"type": "uint256"
				}
			],
			"stateMutability": "view",
			"type": "function"
		},
		{
			"inputs": [],
			"name": "senator",
			"outputs": [
				{
					"internalType": "address",
					"name": "",
					"type": "address"
				}
			],
			"stateMutability": "view",
			"type": "function"
		},
		{
			"inputs": [
				{
					"internalType": "address",
					"name": "_token",
					"type": "address"
				},
				{
					"internalType": "address",
					"name": "_user",
					"type": "address"
				},
				{
					"internalType": "uint256",
					"name": "_amount",
					"type": "uint256"
				}
			],
			"name": "sendLedgerProposal",
			"outputs": [],
			"stateMutability": "nonpayable",
			"type": "function"
		},
		{
			"inputs": [
				{
					"internalType": "bool",
					"name": "v",
					"type": "bool"
				}
			],
			"name": "vote",
			"outputs": [],
			"stateMutability": "nonpayable",
			"type": "function"
		}
	]
}